{
  "_format": "hh-sol-artifact-1",
  "contractName": "PlayLudo",
  "sourceName": "contracts/PlayLudo.sol",
  "abi": [
    {
      "inputs": [],
      "name": "boardSize",
      "outputs": [
        {
          "internalType": "uint256",
          "name": "",
          "type": "uint256"
        }
      ],
      "stateMutability": "view",
      "type": "function"
    },
    {
      "inputs": [],
      "name": "checkWinner",
      "outputs": [
        {
          "internalType": "address",
          "name": "",
          "type": "address"
        }
      ],
      "stateMutability": "view",
      "type": "function"
    },
    {
      "inputs": [],
      "name": "diceRoll",
      "outputs": [
        {
          "internalType": "uint256",
          "name": "",
          "type": "uint256"
        }
      ],
      "stateMutability": "nonpayable",
      "type": "function"
    },
    {
      "inputs": [],
      "name": "joinGame",
      "outputs": [],
      "stateMutability": "nonpayable",
      "type": "function"
    },
    {
      "inputs": [],
      "name": "maxPlayers",
      "outputs": [
        {
          "internalType": "uint256",
          "name": "",
          "type": "uint256"
        }
      ],
      "stateMutability": "view",
      "type": "function"
    },
    {
      "inputs": [
        {
          "internalType": "uint256",
          "name": "",
          "type": "uint256"
        }
      ],
      "name": "playerAddresses",
      "outputs": [
        {
          "internalType": "address",
          "name": "",
          "type": "address"
        }
      ],
      "stateMutability": "view",
      "type": "function"
    },
    {
      "inputs": [
        {
          "internalType": "address",
          "name": "",
          "type": "address"
        }
      ],
      "name": "players",
      "outputs": [
        {
          "internalType": "uint256",
          "name": "position",
          "type": "uint256"
        },
        {
          "internalType": "bool",
          "name": "wonGame",
          "type": "bool"
        }
      ],
      "stateMutability": "view",
      "type": "function"
    }
  ],
  "bytecode": "0x60806040526038600155600460025534801561001a57600080fd5b50610c6e8061002a6000396000f3fe608060405234801561001057600080fd5b506004361061007d5760003560e01c8063ad38867e1161005b578063ad38867e146100ee578063c51d69f41461010c578063d4f77b1c1461012a578063e2eb41ff146101345761007d565b806315c6aee2146100825780634c2412a2146100b257806370bddc80146100d0575b600080fd5b61009c6004803603810190610097919061078f565b610165565b6040516100a991906107fd565b60405180910390f35b6100ba6101a4565b6040516100c79190610827565b60405180910390f35b6100d86101aa565b6040516100e59190610827565b60405180910390f35b6100f661042e565b60405161010391906107fd565b60405180910390f35b610114610532565b6040516101219190610827565b60405180910390f35b610132610538565b005b61014e6004803603810190610149919061086e565b6106ee565b60405161015c9291906108b6565b60405180910390f35b6003818154811061017557600080fd5b906000526020600020016000915054906101000a900473ffffffffffffffffffffffffffffffffffffffff1681565b60025481565b6000806000803373ffffffffffffffffffffffffffffffffffffffff1673ffffffffffffffffffffffffffffffffffffffff168152602001908152602001600020600001541161022f576040517f08c379a00000000000000000000000000000000000000000000000000000000081526004016102269061093c565b60405180910390fd5b6000803373ffffffffffffffffffffffffffffffffffffffff1673ffffffffffffffffffffffffffffffffffffffff16815260200190815260200160002060010160009054906101000a900460ff16156102be576040517f08c379a00000000000000000000000000000000000000000000000000000000081526004016102b5906109a8565b60405180910390fd5b6000600160066102cc61071f565b6102d691906109f7565b6102e09190610a57565b9050806000803373ffffffffffffffffffffffffffffffffffffffff1673ffffffffffffffffffffffffffffffffffffffff16815260200190815260200160002060000160008282546103339190610a57565b925050819055506001546000803373ffffffffffffffffffffffffffffffffffffffff1673ffffffffffffffffffffffffffffffffffffffff16815260200190815260200160002060000154106104275760016000803373ffffffffffffffffffffffffffffffffffffffff1673ffffffffffffffffffffffffffffffffffffffff16815260200190815260200160002060010160006101000a81548160ff0219169083151502179055506001546000803373ffffffffffffffffffffffffffffffffffffffff1673ffffffffffffffffffffffffffffffffffffffff168152602001908152602001600020600001819055505b8091505090565b600080600090505b600380549050811015610529576000806003838154811061045a57610459610a8b565b5b9060005260206000200160009054906101000a900473ffffffffffffffffffffffffffffffffffffffff1673ffffffffffffffffffffffffffffffffffffffff1673ffffffffffffffffffffffffffffffffffffffff16815260200190815260200160002060010160009054906101000a900460ff161561051c57600381815481106104e9576104e8610a8b565b5b9060005260206000200160009054906101000a900473ffffffffffffffffffffffffffffffffffffffff1691505061052f565b8080600101915050610436565b50600090505b90565b60015481565b60025460038054905010610581576040517f08c379a000000000000000000000000000000000000000000000000000000000815260040161057890610b06565b60405180910390fd5b60008060003373ffffffffffffffffffffffffffffffffffffffff1673ffffffffffffffffffffffffffffffffffffffff1681526020019081526020016000206000015414610605576040517f08c379a00000000000000000000000000000000000000000000000000000000081526004016105fc90610b72565b60405180910390fd5b604051806040016040528060018152602001600015158152506000803373ffffffffffffffffffffffffffffffffffffffff1673ffffffffffffffffffffffffffffffffffffffff1681526020019081526020016000206000820151816000015560208201518160010160006101000a81548160ff0219169083151502179055509050506003339080600181540180825580915050600190039060005260206000200160009091909190916101000a81548173ffffffffffffffffffffffffffffffffffffffff021916908373ffffffffffffffffffffffffffffffffffffffff160217905550565b60006020528060005260406000206000915090508060000154908060010160009054906101000a900460ff16905082565b600042334460405160200161073693929190610bfb565b6040516020818303038152906040528051906020012060001c905090565b600080fd5b6000819050919050565b61076c81610759565b811461077757600080fd5b50565b60008135905061078981610763565b92915050565b6000602082840312156107a5576107a4610754565b5b60006107b38482850161077a565b91505092915050565b600073ffffffffffffffffffffffffffffffffffffffff82169050919050565b60006107e7826107bc565b9050919050565b6107f7816107dc565b82525050565b600060208201905061081260008301846107ee565b92915050565b61082181610759565b82525050565b600060208201905061083c6000830184610818565b92915050565b61084b816107dc565b811461085657600080fd5b50565b60008135905061086881610842565b92915050565b60006020828403121561088457610883610754565b5b600061089284828501610859565b91505092915050565b60008115159050919050565b6108b08161089b565b82525050565b60006040820190506108cb6000830185610818565b6108d860208301846108a7565b9392505050565b600082825260208201905092915050565b7f596f7520617265206e6f7420696e207468652067616d65210000000000000000600082015250565b60006109266018836108df565b9150610931826108f0565b602082019050919050565b6000602082019050818103600083015261095581610919565b9050919050565b7f596f7520616c726561647920776f6e2100000000000000000000000000000000600082015250565b60006109926010836108df565b915061099d8261095c565b602082019050919050565b600060208201905081810360008301526109c181610985565b9050919050565b7f4e487b7100000000000000000000000000000000000000000000000000000000600052601260045260246000fd5b6000610a0282610759565b9150610a0d83610759565b925082610a1d57610a1c6109c8565b5b828206905092915050565b7f4e487b7100000000000000000000000000000000000000000000000000000000600052601160045260246000fd5b6000610a6282610759565b9150610a6d83610759565b9250828201905080821115610a8557610a84610a28565b5b92915050565b7f4e487b7100000000000000000000000000000000000000000000000000000000600052603260045260246000fd5b7f4d617820706c6179657273207265616368656400000000000000000000000000600082015250565b6000610af06013836108df565b9150610afb82610aba565b602082019050919050565b60006020820190508181036000830152610b1f81610ae3565b9050919050565b7f596f752061726520616c726561647920696e207468652067616d650000000000600082015250565b6000610b5c601b836108df565b9150610b6782610b26565b602082019050919050565b60006020820190508181036000830152610b8b81610b4f565b9050919050565b6000819050919050565b610bad610ba882610759565b610b92565b82525050565b60008160601b9050919050565b6000610bcb82610bb3565b9050919050565b6000610bdd82610bc0565b9050919050565b610bf5610bf0826107dc565b610bd2565b82525050565b6000610c078286610b9c565b602082019150610c178285610be4565b601482019150610c278284610b9c565b60208201915081905094935050505056fea2646970667358221220873aa742b883af95d0db00de5cb8111419fa45e58220dfa36247679d9b079d8464736f6c63430008180033",
  "linkReferences": {},
  "deployedLinkReferences": {}
}